{
  "_format": "hh-sol-artifact-1",
  "contractName": "Rocket",
  "sourceName": "contracts/Rocket.sol",
  "abi": [
    {
      "inputs": [],
      "stateMutability": "payable",
      "type": "constructor"
    },
    {
      "anonymous": false,
      "inputs": [
        {
          "indexed": true,
          "internalType": "address",
          "name": "from",
          "type": "address"
        },
        {
          "indexed": false,
          "internalType": "string",
          "name": "message",
          "type": "string"
        },
        {
          "indexed": false,
          "internalType": "uint256",
          "name": "timestamp",
          "type": "uint256"
        }
      ],
      "name": "NewRocket",
      "type": "event"
    },
    {
      "inputs": [],
      "name": "getAllRockets",
      "outputs": [
        {
          "components": [
            {
              "internalType": "address",
              "name": "launcher",
              "type": "address"
            },
            {
              "internalType": "string",
              "name": "message",
              "type": "string"
            },
            {
              "internalType": "uint256",
              "name": "timestamp",
              "type": "uint256"
            }
          ],
          "internalType": "struct Rocket.RocketMessage[]",
          "name": "",
          "type": "tuple[]"
        }
      ],
      "stateMutability": "view",
      "type": "function"
    },
    {
      "inputs": [],
      "name": "getTotalRockets",
      "outputs": [
        {
          "internalType": "uint256",
          "name": "",
          "type": "uint256"
        }
      ],
      "stateMutability": "view",
      "type": "function"
    },
    {
      "inputs": [
        {
          "internalType": "address",
          "name": "",
          "type": "address"
        }
      ],
      "name": "lastRocketAt",
      "outputs": [
        {
          "internalType": "uint256",
          "name": "",
          "type": "uint256"
        }
      ],
      "stateMutability": "view",
      "type": "function"
    },
    {
      "inputs": [
        {
          "internalType": "string",
          "name": "_message",
          "type": "string"
        }
      ],
      "name": "sendRocket",
      "outputs": [],
      "stateMutability": "nonpayable",
      "type": "function"
    }
  ],
  "bytecode": "0x60806040526200004f6040518060400160405280600981526020017f68657920676f6f797300000000000000000000000000000000000000000000008152506200007760201b620006fa1760201c565b606444426200005f9190620001c4565b6200006b919062000261565b60018190555062000308565b62000117816040516024016200008e919062000184565b6040516020818303038152906040527f41304fac000000000000000000000000000000000000000000000000000000007bffffffffffffffffffffffffffffffffffffffffffffffffffffffff19166020820180517bffffffffffffffffffffffffffffffffffffffffffffffffffffffff83818316178352505050506200011a60201b60201c565b50565b60008151905060006a636f6e736f6c652e6c6f679050602083016000808483855afa5050505050565b60006200015082620001a8565b6200015c8185620001b3565b93506200016e8185602086016200022b565b6200017981620002f7565b840191505092915050565b60006020820190508181036000830152620001a0818462000143565b905092915050565b600081519050919050565b600082825260208201905092915050565b6000620001d18262000221565b9150620001de8362000221565b9250827fffffffffffffffffffffffffffffffffffffffffffffffffffffffffffffffff0382111562000216576200021562000299565b5b828201905092915050565b6000819050919050565b60005b838110156200024b5780820151818401526020810190506200022e565b838111156200025b576000848401525b50505050565b60006200026e8262000221565b91506200027b8362000221565b9250826200028e576200028d620002c8565b5b828206905092915050565b7f4e487b7100000000000000000000000000000000000000000000000000000000600052601160045260246000fd5b7f4e487b7100000000000000000000000000000000000000000000000000000000600052601260045260246000fd5b6000601f19601f8301169050919050565b6112e280620003186000396000f3fe608060405234801561001057600080fd5b506004361061004c5760003560e01c8063660a99a9146100515780637474c3471461006f578063793cc0021461008b5780639459eef4146100bb575b600080fd5b6100596100d9565b6040516100669190610e8e565b60405180910390f35b61008960048036038101906100849190610adc565b610124565b005b6100a560048036038101906100a09190610ab3565b610591565b6040516100b29190610e8e565b60405180910390f35b6100c36105a9565b6040516100d09190610d45565b60405180910390f35b600061011c6040518060400160405280601281526020017f7765206861766520257320726f636b6574730000000000000000000000000000815250600054610793565b600054905090565b426005600260003373ffffffffffffffffffffffffffffffffffffffff1673ffffffffffffffffffffffffffffffffffffffff168152602001908152602001600020546101719190610f70565b106101b1576040517f08c379a00000000000000000000000000000000000000000000000000000000081526004016101a890610e6e565b60405180910390fd5b42600260003373ffffffffffffffffffffffffffffffffffffffff1673ffffffffffffffffffffffffffffffffffffffff168152602001908152602001600020819055506102736040518060400160405280600e81526020017f6c6173742077617665203d202573000000000000000000000000000000000000815250600260003373ffffffffffffffffffffffffffffffffffffffff1673ffffffffffffffffffffffffffffffffffffffff16815260200190815260200160002054610793565b60016000808282546102859190610f70565b925050819055506102cc6040518060400160405280601d81526020017f25732073656e64206120726f636b65742077697468206d657373616765000000815250338361082f565b600360405180606001604052803373ffffffffffffffffffffffffffffffffffffffff16815260200183815260200142815250908060018154018082558091505060019003906000526020600020906003020160009091909190915060008201518160000160006101000a81548173ffffffffffffffffffffffffffffffffffffffff021916908373ffffffffffffffffffffffffffffffffffffffff160217905550602082015181600101908051906020019061038b929190610993565b50604082015181600201555050606444426103a69190610f70565b6103b091906110a7565b6001819055506103f76040518060400160405280601181526020017f72616e646f6d2073656564206973202573000000000000000000000000000000815250600154610793565b6032600154111561053e576104416040518060400160405280600681526020017f257320776f6e0000000000000000000000000000000000000000000000000000815250336108ce565b6000655af3107a400090504781111561048f576040517f08c379a000000000000000000000000000000000000000000000000000000000815260040161048690610e2e565b60405180910390fd5b60003373ffffffffffffffffffffffffffffffffffffffff16826040516104b590610d30565b60006040518083038185875af1925050503d80600081146104f2576040519150601f19603f3d011682016040523d82523d6000602084013e6104f7565b606091505b505090508061053b576040517f08c379a000000000000000000000000000000000000000000000000000000000815260040161053290610e4e565b60405180910390fd5b50505b3373ffffffffffffffffffffffffffffffffffffffff167fb7d9dfa9b84d2ab562eb21a3ac1556d76c76b5ca5e98549dd96bc4ef6d11dd488242604051610586929190610dfe565b60405180910390a250565b60026020528060005260406000206000915090505481565b60606003805480602002602001604051908101604052809291908181526020016000905b828210156106f157838290600052602060002090600302016040518060600160405290816000820160009054906101000a900473ffffffffffffffffffffffffffffffffffffffff1673ffffffffffffffffffffffffffffffffffffffff1673ffffffffffffffffffffffffffffffffffffffff16815260200160018201805461065690611044565b80601f016020809104026020016040519081016040528092919081815260200182805461068290611044565b80156106cf5780601f106106a4576101008083540402835291602001916106cf565b820191906000526020600020905b8154815290600101906020018083116106b257829003601f168201915b50505050508152602001600282015481525050815260200190600101906105cd565b50505050905090565b6107908160405160240161070e9190610d67565b6040516020818303038152906040527f41304fac000000000000000000000000000000000000000000000000000000007bffffffffffffffffffffffffffffffffffffffffffffffffffffffff19166020820180517bffffffffffffffffffffffffffffffffffffffffffffffffffffffff838183161783525050505061096a565b50565b61082b82826040516024016107a9929190610dfe565b6040516020818303038152906040527f9710a9d0000000000000000000000000000000000000000000000000000000007bffffffffffffffffffffffffffffffffffffffffffffffffffffffff19166020820180517bffffffffffffffffffffffffffffffffffffffffffffffffffffffff838183161783525050505061096a565b5050565b6108c983838360405160240161084793929190610db9565b6040516020818303038152906040527fe0e9ad4f000000000000000000000000000000000000000000000000000000007bffffffffffffffffffffffffffffffffffffffffffffffffffffffff19166020820180517bffffffffffffffffffffffffffffffffffffffffffffffffffffffff838183161783525050505061096a565b505050565b61096682826040516024016108e4929190610d89565b6040516020818303038152906040527f319af333000000000000000000000000000000000000000000000000000000007bffffffffffffffffffffffffffffffffffffffffffffffffffffffff19166020820180517bffffffffffffffffffffffffffffffffffffffffffffffffffffffff838183161783525050505061096a565b5050565b60008151905060006a636f6e736f6c652e6c6f679050602083016000808483855afa5050505050565b82805461099f90611044565b90600052602060002090601f0160209004810192826109c15760008555610a08565b82601f106109da57805160ff1916838001178555610a08565b82800160010185558215610a08579182015b82811115610a075782518255916020019190600101906109ec565b5b509050610a159190610a19565b5090565b5b80821115610a32576000816000905550600101610a1a565b5090565b6000610a49610a4484610ece565b610ea9565b905082815260208101848484011115610a6157600080fd5b610a6c848285611002565b509392505050565b600081359050610a8381611295565b92915050565b600082601f830112610a9a57600080fd5b8135610aaa848260208601610a36565b91505092915050565b600060208284031215610ac557600080fd5b6000610ad384828501610a74565b91505092915050565b600060208284031215610aee57600080fd5b600082013567ffffffffffffffff811115610b0857600080fd5b610b1484828501610a89565b91505092915050565b6000610b298383610cc2565b905092915050565b610b3a81610fc6565b82525050565b610b4981610fc6565b82525050565b6000610b5a82610f0f565b610b648185610f32565b935083602082028501610b7685610eff565b8060005b85811015610bb25784840389528151610b938582610b1d565b9450610b9e83610f25565b925060208a01995050600181019050610b7a565b50829750879550505050505092915050565b6000610bcf82610f1a565b610bd98185610f4e565b9350610be9818560208601611011565b610bf281611194565b840191505092915050565b6000610c0882610f1a565b610c128185610f5f565b9350610c22818560208601611011565b610c2b81611194565b840191505092915050565b6000610c43602283610f5f565b9150610c4e826111a5565b604082019050919050565b6000610c66602683610f5f565b9150610c71826111f4565b604082019050919050565b6000610c89600883610f43565b9150610c9482611243565b600882019050919050565b6000610cac600883610f5f565b9150610cb78261126c565b602082019050919050565b6000606083016000830151610cda6000860182610b31565b5060208301518482036020860152610cf28282610bc4565b9150506040830151610d076040860182610d12565b508091505092915050565b610d1b81610ff8565b82525050565b610d2a81610ff8565b82525050565b6000610d3b82610c7c565b9150819050919050565b60006020820190508181036000830152610d5f8184610b4f565b905092915050565b60006020820190508181036000830152610d818184610bfd565b905092915050565b60006040820190508181036000830152610da38185610bfd565b9050610db26020830184610b40565b9392505050565b60006060820190508181036000830152610dd38186610bfd565b9050610de26020830185610b40565b8181036040830152610df48184610bfd565b9050949350505050565b60006040820190508181036000830152610e188185610bfd565b9050610e276020830184610d21565b9392505050565b60006020820190508181036000830152610e4781610c36565b9050919050565b60006020820190508181036000830152610e6781610c59565b9050919050565b60006020820190508181036000830152610e8781610c9f565b9050919050565b6000602082019050610ea36000830184610d21565b92915050565b6000610eb3610ec4565b9050610ebf8282611076565b919050565b6000604051905090565b600067ffffffffffffffff821115610ee957610ee8611165565b5b610ef282611194565b9050602081019050919050565b6000819050602082019050919050565b600081519050919050565b600081519050919050565b6000602082019050919050565b600082825260208201905092915050565b600081905092915050565b600082825260208201905092915050565b600082825260208201905092915050565b6000610f7b82610ff8565b9150610f8683610ff8565b9250827fffffffffffffffffffffffffffffffffffffffffffffffffffffffffffffffff03821115610fbb57610fba6110d8565b5b828201905092915050565b6000610fd182610fd8565b9050919050565b600073ffffffffffffffffffffffffffffffffffffffff82169050919050565b6000819050919050565b82818337600083830152505050565b60005b8381101561102f578082015181840152602081019050611014565b8381111561103e576000848401525b50505050565b6000600282049050600182168061105c57607f821691505b602082108114156110705761106f611136565b5b50919050565b61107f82611194565b810181811067ffffffffffffffff8211171561109e5761109d611165565b5b80604052505050565b60006110b282610ff8565b91506110bd83610ff8565b9250826110cd576110cc611107565b5b828206905092915050565b7f4e487b7100000000000000000000000000000000000000000000000000000000600052601160045260246000fd5b7f4e487b7100000000000000000000000000000000000000000000000000000000600052601260045260246000fd5b7f4e487b7100000000000000000000000000000000000000000000000000000000600052602260045260246000fd5b7f4e487b7100000000000000000000000000000000000000000000000000000000600052604160045260246000fd5b6000601f19601f8301169050919050565b7f7072697a652069732067726561746572207468616e20636f6e7472616374206860008201527f6173000000000000000000000000000000000000000000000000000000000000602082015250565b7f4661696c656420746f207769746864726177206d6f6e65792066726f6d20636f60008201527f6e74726163740000000000000000000000000000000000000000000000000000602082015250565b7f636f6e6772617473000000000000000000000000000000000000000000000000600082015250565b7f576169742031356d000000000000000000000000000000000000000000000000600082015250565b61129e81610fc6565b81146112a957600080fd5b5056fea26469706673582212208c705c43e32e2a89f59d213cbd13ae1febf1db024af14efd1a280cfefdc80e4c64736f6c63430008040033",
  "linkReferences": {},
  "deployedLinkReferences": {}
}